:020000040800F2
:1000000000040020D10A0008310B0008310B000861
:10001000310B0008310B0008310B00080000000014
:10002000000000000000000000000000310B00088C
:10003000310B000800000000310B0008310B0008F4
:10004000310B0008310B0008310B0008310B0008A0
:10005000310B0008310B0008310B0008310B000890
:10006000310B0008310B0008310B0008310B000880
:10007000310B0008310B0008310B0008310B000870
:10008000310B0008310B0008310B0008310B000860
:10009000310B0008310B0008310B0008310B000850
:1000A000310B0008310B0008310B0008310B000840
:1000B000310B0008310B0008310B0008310B000830
:1000C000310B0008310B0008310B0008310B000820
:1000D000310B0008310B0008310B0008310B000810
:1000E000310B0008310B0008310B00080000000044
:1000F0000000000000000000000000000000000000
:100100000000000000000000310B0008310B000867
:10011000310B0008310B0008310B0008310B0008CF
:10012000310B0008310B0008310B0008310B0008BF
:10013000310B0008310B0008310B0008310B0008AF
:10014000310B0008310B0008310B0008310B00089F
:100150005FF808F10000000090B585B000AF4FF4E3
:1001600000512B4800F036FB0346012B47D00C20F2
:1001700000F090F80346FB814FF00003BB604FF0A6
:1001800000037B60FB8903F40053002B1DD0FB8927
:100190005B429BB2C3F30D03FB81FB89184601F060
:1001A0004BFA034683F00043184600F0D9FE16A32D
:1001B000D3E9002300F028FF03460C4618462146E9
:1001C00001F034F90346BB6016E0FB89C3F30D036D
:1001D000184601F035FA0346184600F0C1FE0AA39E
:1001E000D3E9002300F010FF03460C4618462146D1
:1001F00001F01CF90346BB604FF00003BB6000BF79
:100200001437BD4690BD00BF9A9999999999993F25
:100210000010014080B584B000AF0346FB8000BFF2
:1002200002210C4800F01CFD0346002BF8D0094ABF
:10023000FB88938100BF0121064800F011FD0346B1
:10024000002BF8D0034B9B899BB2FB7300BF103788
:10025000BD4680BD0038004080B500AF00BF022120
:100260000B4800F0FDFC0346002BF8D000210848A5
:1002700000F0C6FC00BF0121054800F0F1FC034678
:10028000002BF8D0024B9B899BB2DBB2184680BD95
:100290000038004080B58CB000AF0346FB714FF4CE
:1002A00080513D4800F0BEFA0023FB6202E0FB6A89
:1002B0000133FB62FB6AB3F5C87FF8DBFB799BB2C5
:1002C0001846FFF7A7FF0023BB6202E0BB6A0133B9
:1002D000BB62BB6AB3F5487FF8DBFFF7BDFF0023C5
:1002E0007B6202E07B6A01337B627B6AB3F5C87F85
:1002F000F8DB4FF48051284800F086FA00233B6277
:1003000002E03B6A01333B623B6A244A9342F8DDD8
:100310004FF48051204800F085FA0023FB6102E091
:10032000FB690133FB61FB69B3F5C87FF8DBFFF7BD
:1003300093FF03469BB21B02FB810023BB6102E0DB
:10034000BB690133BB61BB69B3F5487FF8DBFFF7DD
:1003500083FF03469AB2FB891343FB8100237B6131
:1003600002E07B6901337B617B69B3F5C87FF8DB11
:100370004FF48051084800F047FA00233B6102E047
:100380003B6901333B613B69054A9342F8DDFB89D8
:1003900018463037BD4680BD000C01403F170300B2
:1003A0009F90010080B485B000AF78603960002371
:1003B000FB817B681B88FB817B682E4A934213D0AC
:1003C0007B682D4A93420FD07B68B3F1804F0BD0EE
:1003D0007B682A4A934207D07B68294A934203D01C
:1003E0007B68284A934208D1FB8923F07003FB8184
:1003F0003B685A88FB891343FB817B68224A9342FE
:100400000CD07B68214A934208D0FB8923F44073C7
:10041000FB813B68DA88FB891343FB817B68FA899F
:100420001A803B689A887B689A853B681A887B6843
:100430001A857B680F4A93420FD07B680E4A93421D
:100440000BD07B68124A934207D07B68114A9342D3
:1004500003D07B68104A934204D13B681B7A9AB25E
:100460007B681A867B6801229A8200BF1437BD46DA
:1004700080BC7047002C0140003401400004004063
:1004800000080040000C0040001000400014004034
:1004900000400140004401400048014080B500AFE9
:1004A0001A4A1A4B1B6843F0010313601749174B94
:1004B0005A68174B13404B60144A144B1B6823F0C7
:1004C000847323F480331360104A104B1B6823F4A9
:1004D000802313600D4A0D4B5B6823F4FE035360C9
:1004E0000A4A0A4B1B6823F0A0531360074B4FF4D2
:1004F0007F029A60054B0022DA6200F00DF8054B8E
:100500004FF000629A6000BF80BD00BF0010024043
:100510000000FFF000ED00E080B500AF00F002F851
:1005200000BF80BD80B483B000AF00237B60002398
:100530003B60474A464B1B6843F480331360444B8F
:100540001B6803F400333B607B6801337B603B68CE
:10055000002B03D17B68B3F5A06FF0D13C4B1B6837
:1005600003F40033002B02D001233B6001E00023A1
:100570003B603B68012B66D1364A364B1B6843F023
:1005800010031360334A334B1B6823F003031360DB
:10059000304A304B1B6843F0020313602C4A2C4B4B
:1005A0005B6853602A4A2A4B5B685360284A284B91
:1005B0005B6843F4806353602549254BDA6A264B18
:1005C0001340CB62224A224BDB6A43F4833343F06D
:1005D0004403D3621E4A1E4B1B6843F080631360C2
:1005E00000BF1B4B1B6803F00063002BF9D0184AB7
:1005F000174B5B6823F47C135360154A144B5B68FC
:1006000043F4E8135360124A114B1B6843F08073A4
:10061000136000BF0E4B1B6803F00073002BF9D072
:100620000B4A0B4B5B6823F003035360084A084BEB
:100630005B6843F00203536000BF054B5B6803F047
:100640000C03082BF9D100BF0C37BD4680BC7047A6
:10065000001002400020024000F0FEFF80B489B08C
:1006600000AF786039600023FB6100233B61002309
:10067000BB610023FB6000237B610023BB603B6800
:10068000DB7803F00F03FB613B68DB7803F01003BA
:10069000002B05D03B689B781A46FB691343FB612E
:1006A0003B681B88DBB2002B44D07B681B687B61F6
:1006B0000023BB6138E00122BB6902FA03F3FB604F
:1006C0003B681B881A46FB6813403B613A69FB682C
:1006D0009A4226D1BB699B00FB600F22FB6802FA9D
:1006E00003F3BB60BB68DB437A6913407B61FA6943
:1006F000FB6802FA03F37A6913437B613B68DB789A
:10070000282B05D10122BB699A407B685A6108E019
:100710003B68DB78482B04D10122BB699A407B6897
:100720001A61BB690133BB61BB69072BC3D97B6805
:100730007A691A603B681B88FF2B46D97B685B6827
:100740007B610023BB613AE0BB690833012202FAF6
:1007500003F3FB603B681B881A46FB6813403B6150
:100760003A69FB689A4227D1BB699B00FB600F2264
:10077000FB6802FA03F3BB60BB68DB437A69134092
:100780007B61FA69FB6802FA03F37A6913437B61C0
:100790003B68DB78282B05D1BB69083301229A40DE
:1007A0007B685A613B68DB78482B05D1BB6908330D
:1007B00001229A407B681A61BB690133BB61BB6946
:1007C000072BC1D97B687A695A6000BF2437BD46C0
:1007D00080BC704780B485B000AF78600B467B80EA
:1007E0000023FB737B689A687B881340002B02D040
:1007F0000123FB7301E00023FB73FB7B18461437D6
:10080000BD4680BC704700BF80B483B000AF786045
:100810000B467B807A887B681A6100BF0C37BD4627
:1008200080BC704780B483B000AF78600B467B809B
:100830007A887B685A6100BF0C37BD4680BC704720
:1008400080B58CB000AF0023FB620023BB62784A06
:10085000774B1B6843F48033136007E0744B1B68CD
:1008600003F40033BB62FB6A0133FB62BB6A002BFB
:1008700003D1FB6AB3F5A06FF0D16E4B12221A6060
:100880006B4A6B4B5B6843F4806353606849684B09
:10089000DA6A694B1340CB62654A654BDB6A43F405
:1008A000833343F04403D362614A614B1B6843F0D6
:1008B0008063136000BF5E4B1B6803F00063002B76
:1008C000F9D05B4A5A4B5B6823F474135360584A5F
:1008D000574B5B6843F4E8135360554A544B1B680D
:1008E00043F08073136000BF514B1B6803F000732B
:1008F000002BF9D04E4A4E4B5B6823F00303536044
:100900004B4A4B4B5B6843F00203536000BF484BBC
:100910005B6803F00C03082BF9D10121182000F0CB
:100920009BF8482387F827304FF40053BB840323F8
:1009300087F8263007F1240319464048FFF78EFE5A
:10094000102387F827300123BB84032387F8263040
:1009500007F1240319463A48FFF780FE01210120E0
:1009600000F098F800237B834FF6FF73BB834FF4AE
:1009700034733B8307F1180319464FF08040FFF7AB
:1009800011FD0121082000F067F801214FF480409B
:1009900000F080F80323BB751823FB754FF4204348
:1009A000BB8207F1140319462548FFF757FE0423BD
:1009B000FB754FF48043BB8207F1140319462048AE
:1009C000FFF74CFE0323BB751023FB754FF48053D8
:1009D000BB8207F1140319461948FFF73FFE4FF495
:1009E00080511748FFF710FF00233B804FF48273BC
:1009F0007B800023BB800223FB8001233B814FF4DB
:100A000000737B812823BB810023FB813B46194671
:100A10000C4800F091F84FF480710A4800F0FEF89D
:100A20000121084800F0CCF800BF3037BD4680BD3A
:100A3000001002400020024000F0FEFF00100140C4
:100A4000000C01400038004080B500AFFFF7F8FE11
:100A5000FFF782FBFCE700BF80B483B000AF786093
:100A60000B46FB70FB78002B06D00949084B9A69AE
:100A70007B6813438B6106E00549054B9A697B68E7
:100A8000DB4313408B6100BF0C37BD4680BC704711
:100A90000010024080B483B000AF78600B46FB705A
:100AA000FB78002B06D00949084BDA697B681343B1
:100AB000CB6106E00549054BDA697B68DB431340EF
:100AC000CB6100BF0C37BD4680BC704700100240B0
:100AD00080B582B000AF114B7B60114B3B6007E0EB
:100AE0003B681A1D3A607A68111D796012681A60B5
:100AF0003B680C4A9342F3D30B480C494FF0000279
:100B00008842B8BF40F8042BFADBFFF7C7FCFFF7B9
:100B10009BFF00BF0837BD4680BD00BFE816000838
:100B20000000002000000020000000200000002045
:100B300080B400AFFEE700BF80B485B000AF78603E
:100B400039600023FB817B681B88FB81FB8903F4F0
:100B50004153FB813B681A883B685B8813439AB218
:100B60003B689B8813439AB23B68DB8813439AB275
:100B70003B681B8913439AB23B685B8913439AB263
:100B80003B689B8913439AB23B68DB8913439AB253
:100B9000FB891343FB817B68FA891A807B689B8BF6
:100BA0009BB223F400639AB27B689A833B681A8AEB
:100BB0007B681A8200BF1437BD4680BC704700BFF7
:100BC00080B483B000AF78600B46FB70FB78002BDD
:100BD00008D07B681B889BB243F040039AB27B68C5
:100BE0001A8007E07B681B889BB223F040039AB20F
:100BF0007B681A8000BF0C37BD4680BC704700BFC1
:100C000080B483B000AF78600B467B807B687A88C5
:100C10009A8100BF0C37BD4680BC704780B483B05A
:100C200000AF78600B467B807B884FF6FF62934273
:100C300008D07B681B889BB243F480739AB27B68B0
:100C40001A8007E07B681B889BB223F480739AB2FA
:100C50007B681A8000BF0C37BD4680BC704700BF60
:100C600080B485B000AF78600B467B800023FB73B7
:100C70007B681B899AB27B8813409BB2002B02D001
:100C80000123FB7301E00023FB73FB7B1846143741
:100C9000BD4680BC704700BF81F0004102E000BF4C
:100CA00083F0004330B54FEA41044FEA430594EA2C
:100CB000050F08BF90EA020F1FBF54EA000C55EA67
:100CC000020C7FEA645C7FEA655C00F0E2804FEA38
:100CD0005454D4EB5555B8BF6D420CDD2C4480EA1A
:100CE000020281EA030382EA000083EA010180EA4A
:100CF000020281EA0303362D88BF30BD11F0004F98
:100D00004FEA01314FF4801C4CEA113102D04042CD
:100D100061EB410113F0004F4FEA03334CEA133308
:100D200002D0524263EB430394EA050F00F0A78020
:100D3000A4F10104D5F1200E0DDB02FA0EFC22FA1B
:100D400005F2801841F1000103FA0EF2801843FA0F
:100D500005F359410EE0A5F120050EF1200E012A00
:100D600003FA0EFC28BF4CF0020C43FA05F3C0183E
:100D700051EBE37101F0004507D54FF0000EDCF1B7
:100D8000000C7EEB00006EEB0101B1F5801F1BD360
:100D9000B1F5001F0CD349085FEA30004FEA3C0C64
:100DA00004F101044FEA445212F5800F80F09A805A
:100DB000BCF1004F08BF5FEA500C50F1000041EB5E
:100DC000045141EA050130BD5FEA4C0C404141EB62
:100DD000010111F4801FA4F10104E9D191F0000F89
:100DE00004BF01460020B1FA81F308BF2033A3F10C
:100DF0000B03B3F120020CDA0C3208DD02F1140C03
:100E0000C2F10C0201FA0CF021FA02F10CE002F13D
:100E10001402D8BFC2F1200C01FA02F120FA0CFC36
:100E2000DCBF41EA0C019040E41AA2BF01EB04517F
:100E3000294330BD6FEA04041F3C1CDA0C340EDC7D
:100E400004F11404C4F1200220FA04F001FA02F3C0
:100E500040EA030021FA04F345EA030130BDC4F17E
:100E60000C04C4F1200220FA02F001FA04F340EA73
:100E70000300294630BD21FA04F0294630BD94F024
:100E8000000F83F4801306BF81F480110134013D0B
:100E90004EE77FEA645C18BF7FEA655C29D094EA7C
:100EA000050F08BF90EA020F05D054EA000C04BFFA
:100EB0001946104630BD91EA030F1EBF00210020E5
:100EC00030BD5FEA545C05D14000494128BF41F084
:100ED000004130BD14F580043CBF01F5801130BDE8
:100EE00001F0004545F0FE4141F470014FF0000073
:100EF00030BD7FEA645C1ABF194610467FEA655C24
:100F00001CBF0B46024650EA013406BF52EA0335C5
:100F100091EA030F41F4002130BD00BF90F0000FB3
:100F200004BF0021704730B54FF4806404F13204EF
:100F30004FF000054FF0000150E700BF90F0000FA8
:100F400004BF0021704730B54FF4806404F13204CF
:100F500010F0004548BF40424FF000013EE700BF9F
:100F600042004FEAE2014FEA31014FEA02701FBF2F
:100F700012F07F4393F07F4F81F06051704792F001
:100F8000000F14BF93F07F4F704730B54FF460747B
:100F900001F0004521F0004120E700BF50EA0102C6
:100FA00008BF704730B54FF000050AE050EA010273
:100FB00008BF704730B511F0004502D5404261EBE3
:100FC00041014FF4806404F132045FEA915C3FF424
:100FD000DCAE4FF003025FEADC0C18BF03325FEABD
:100FE000DC0C18BF033202EBDC02C2F1200300FA72
:100FF00003FC20FA02F001FA03FE40EA0E0021FA97
:1010000002F11444C1E600BF70B54FF0FF0C4CF480
:10101000E06C1CEA11541DBF1CEA135594EA0C0F36
:1010200095EA0C0F00F0DEF82C4481EA030621EA71
:101030004C5123EA4C5350EA013518BF52EA0335AC
:1010400041F4801143F4801338D0A0FB02CE4FF05E
:101050000005E1FB02E506F00042E0FB03E54FF08E
:101060000006E1FB03569CF0000F18BF4EF0010E86
:10107000A4F1FF04B6F5007F64F5407404D25FEA82
:101080004E0E6D4146EB060642EAC62141EA555135
:101090004FEAC52040EA5E504FEACE2EB4F1FD0C77
:1010A00088BFBCF5E06F1ED8BEF1004F08BF5FEAF5
:1010B000500E50F1000041EB045170BD06F00046A7
:1010C00046EA010140EA020081EA0301B4EB5C0454
:1010D000C2BFD4EB0C0541EA045170BD41F480114C
:1010E0004FF0000E013C00F3AB8014F1360FDEBF71
:1010F000002001F0004170BDC4F10004203C35DA4D
:101100000C341BDC04F11404C4F1200500FA05F3CF
:1011100020FA04F001FA05F240EA020001F0004270
:1011200021F0004110EBD37021FA04F642EB0601E6
:101130005EEA430E08BF20EAD37070BDC4F10C0410
:10114000C4F1200500FA04F320FA05F001FA04F2D4
:1011500040EA020001F0004110EBD37041F10001C0
:101160005EEA430E08BF20EAD37070BDC4F12005CB
:1011700000FA05F24EEA020E20FA04F301FA05F233
:1011800043EA020321FA04F001F0004121FA04F2DB
:1011900020EA020000EBD3705EEA430E08BF20EAAB
:1011A000D37070BD94F0000F0FD101F000464000E5
:1011B00041EB010111F4801F08BF013CF7D041EA67
:1011C000060195F0000F18BF704703F0004652006B
:1011D00043EB030313F4801F08BF013DF7D043EA3C
:1011E0000603704794EA0C0F0CEA135518BF95EAF2
:1011F0000C0F0CD050EA410618BF52EA4306D1D179
:1012000081EA030101F000414FF0000070BD50EA97
:10121000410606BF1046194652EA430619D094EA21
:101220000C0F02D150EA013613D195EA0C0F05D10B
:1012300052EA03361CBF104619460AD181EA03015F
:1012400001F0004141F0FE4141F470014FF0000017
:1012500070BD41F0FE4141F4780170BD70B54FF0B2
:10126000FF0C4CF4E06C1CEA11541DBF1CEA135532
:1012700094EA0C0F95EA0C0F00F0A7F8A4EB050414
:1012800081EA030E52EA03354FEA013100F088800B
:101290004FEA03334FF0805545EA131343EA1263D4
:1012A0004FEA022245EA111545EA10654FEA002689
:1012B0000EF000419D4208BF964244F1FD0404F542
:1012C000407402D25B084FEA3202B61A65EB03059E
:1012D0005B084FEA32024FF480104FF4002CB6EB5B
:1012E000020E75EB030E22BFB61A754640EA0C00DB
:1012F0005B084FEA3202B6EB020E75EB030E22BF1B
:10130000B61A754640EA5C005B084FEA3202B6EB5B
:10131000020E75EB030E22BFB61A754640EA9C001A
:101320005B084FEA3202B6EB020E75EB030E22BFEA
:10133000B61A754640EADC0055EA060E18D04FEAA8
:10134000051545EA16754FEA06164FEAC30343EA48
:1013500052734FEAC2025FEA1C1CC0D111F4801F15
:101360000BD141EA00014FF000004FF0004CB6E70E
:1013700011F4801F04BF01430020B4F1FD0C88BFAD
:10138000BCF5E06F3FF6AFAEB5EB030C04BFB6EBB8
:10139000020C5FEA500C50F1000041EB045170BDAB
:1013A0000EF0004E4EEA113114EB5C04C2BFD4EBD8
:1013B0000C0541EA045170BD41F480114FF0000E5C
:1013C000013C90E645EA060E8DE60CEA135594EAD8
:1013D0000C0F08BF95EA0C0F3FF43BAF94EA0C0FDB
:1013E0000AD150EA01347FF434AF95EA0C0F7FF450
:1013F00025AF104619462CE795EA0C0F06D152EAA4
:1014000003353FF4FDAE1046194622E750EA410687
:1014100018BF52EA43067FF4C5AE50EA41047FF498
:101420000DAF52EA43057FF4EBAE12E74FEA4102FB
:10143000B2F1E04324BFB3F5001CDCF1FE5C0DD932
:1014400001F0004C4FEAC0024CEA5070B2F1004F7C
:1014500040EB830008BF20F00100704711F0804F7F
:1014600021D113F13872BCBF01F00040704741F444
:1014700080114FEA5252C2F11802C2F1200C10FA48
:101480000CF320FA02F018BF40F001004FEAC1232C
:101490004FEAD32303FA0CFC40EA0C0023FA02F3D0
:1014A0004FEA4303CCE77FEA625307D150EA0133A6
:1014B0001EBF4FF0FE4040F44000704701F0004076
:1014C00040F0FE4040F40000704700BF80F0004054
:1014D00002E000BF81F0004142001FBF5FEA41030C
:1014E00092EA030F7FEA226C7FEA236C6AD04FEA0C
:1014F0001262D2EB1363C1BFD21841404840414051
:10150000B8BF5B42192B88BF704710F0004F40F402
:10151000000020F07F4018BF404211F0004F41F41E
:10152000000121F07F4118BF494292EA030F3FD0EA
:10153000A2F1010241FA03FC10EB0C00C3F12003FD
:1015400001FA03F100F0004302D5494260EB40008C
:10155000B0F5000F13D3B0F1807F06D340084FEAF7
:10156000310102F10102FE2A51D2B1F1004F40EBEC
:10157000C25008BF20F0010040EA03007047490054
:1015800040EB000010F4000FA2F10102EDD1B0FA1F
:1015900080FCACF1080CB2EB0C0200FA0CF0AABF14
:1015A00000EBC25052421843BCBFD04018437047B2
:1015B00092F0000F81F4000106BF80F400000132B8
:1015C000013BB5E74FEA41037FEA226C18BF7FEA8F
:1015D000236C21D092EA030F04D092F0000F08BFD1
:1015E0000846704790EA010F1CBF0020704712F0B8
:1015F0007F4F04D1400028BF40F00040704712F1F7
:1016000000723CBF00F50000704700F0004343F05B
:10161000FE4040F4000070477FEA226216BF084691
:101620007FEA23630146420206BF5FEA412390EA54
:10163000010F40F4800070474FF0000304E000BF4A
:1016400010F0004348BF40425FEA000C08BF7047FB
:1016500043F0964301464FF000001CE050EA0102BF
:1016600008BF70474FF000030AE000BF50EA0102D4
:1016700008BF704711F0004302D5404261EB4101C1
:101680005FEA010C02BF84460146002043F0B643E6
:1016900008BFA3F18053A3F50003BCFA8CF2083A0B
:1016A000A3EBC25310DB01FA02FC634400FA02FC14
:1016B000C2F12002BCF1004F20FA02F243EB02001B
:1016C00008BF20F00100704702F1200201FA02FC7D
:1016D000C2F1200250EA4C0021FA02F243EB020070
:0816E00008BF20EADC7070472E
:0400000508000000EF
:00000001FF
